{
  "contractName": "CharityDonation",
  "abi": [
    {
      "anonymous": false,
      "inputs": [
        {
          "indexed": true,
          "internalType": "address",
          "name": "donor",
          "type": "address"
        },
        {
          "indexed": false,
          "internalType": "string",
          "name": "donorName",
          "type": "string"
        },
        {
          "indexed": false,
          "internalType": "uint256",
          "name": "amount",
          "type": "uint256"
        },
        {
          "indexed": false,
          "internalType": "string",
          "name": "charity",
          "type": "string"
        },
        {
          "indexed": false,
          "internalType": "uint256",
          "name": "timestamp",
          "type": "uint256"
        }
      ],
      "name": "DonationMade",
      "type": "event"
    },
    {
      "inputs": [
        {
          "internalType": "uint256",
          "name": "",
          "type": "uint256"
        }
      ],
      "name": "donations",
      "outputs": [
        {
          "internalType": "address",
          "name": "donor",
          "type": "address"
        },
        {
          "internalType": "string",
          "name": "donorName",
          "type": "string"
        },
        {
          "internalType": "uint256",
          "name": "amount",
          "type": "uint256"
        },
        {
          "internalType": "string",
          "name": "charity",
          "type": "string"
        },
        {
          "internalType": "uint256",
          "name": "timestamp",
          "type": "uint256"
        }
      ],
      "stateMutability": "view",
      "type": "function"
    },
    {
      "inputs": [
        {
          "internalType": "address",
          "name": "",
          "type": "address"
        }
      ],
      "name": "donorAmounts",
      "outputs": [
        {
          "internalType": "uint256",
          "name": "",
          "type": "uint256"
        }
      ],
      "stateMutability": "view",
      "type": "function"
    },
    {
      "inputs": [
        {
          "internalType": "string",
          "name": "donorName",
          "type": "string"
        },
        {
          "internalType": "string",
          "name": "charity",
          "type": "string"
        }
      ],
      "name": "makeDonation",
      "outputs": [],
      "stateMutability": "payable",
      "type": "function"
    },
    {
      "inputs": [],
      "name": "getTopDonors",
      "outputs": [
        {
          "components": [
            {
              "internalType": "address",
              "name": "donor",
              "type": "address"
            },
            {
              "internalType": "string",
              "name": "donorName",
              "type": "string"
            },
            {
              "internalType": "uint256",
              "name": "amount",
              "type": "uint256"
            },
            {
              "internalType": "string",
              "name": "charity",
              "type": "string"
            },
            {
              "internalType": "uint256",
              "name": "timestamp",
              "type": "uint256"
            }
          ],
          "internalType": "struct CharityDonation.Donation[]",
          "name": "",
          "type": "tuple[]"
        }
      ],
      "stateMutability": "view",
      "type": "function"
    },
    {
      "inputs": [],
      "name": "simulateMining",
      "outputs": [
        {
          "internalType": "bool",
          "name": "",
          "type": "bool"
        }
      ],
      "stateMutability": "view",
      "type": "function"
    }
  ],
  "bytecode": "0x608060405234801561000f575f80fd5b506111bc8061001d5f395ff3fe608060405260043610610049575f3560e01c806367d8a45c1461004d5780637d59639514610077578063c40d1a7b146100b3578063d6387ed8146100cf578063f8626af8146100f9575b5f80fd5b348015610058575f80fd5b50610061610139565b60405161006e91906107a6565b60405180910390f35b348015610082575f80fd5b5061009d6004803603810190610098919061082a565b610188565b6040516100aa919061086d565b60405180910390f35b6100cd60048036038101906100c891906109c2565b61019d565b005b3480156100da575f80fd5b506100e3610374565b6040516100f09190610c05565b60405180910390f35b348015610104575f80fd5b5061011f600480360381019061011a9190610c4f565b6105df565b604051610130959493929190610cd1565b60405180910390f35b5f670de0b6b3a764000060015f3373ffffffffffffffffffffffffffffffffffffffff1673ffffffffffffffffffffffffffffffffffffffff1681526020019081526020015f20541015905090565b6001602052805f5260405f205f915090505481565b5f34116101df576040517f08c379a00000000000000000000000000000000000000000000000000000000081526004016101d690610d7a565b60405180910390fd5b5f6040518060a001604052803373ffffffffffffffffffffffffffffffffffffffff16815260200184815260200134815260200183815260200142815250908060018154018082558091505060019003905f5260205f2090600502015f909190919091505f820151815f015f6101000a81548173ffffffffffffffffffffffffffffffffffffffff021916908373ffffffffffffffffffffffffffffffffffffffff160217905550602082015181600101908161029c9190610f92565b506040820151816002015560608201518160030190816102bc9190610f92565b506080820151816004015550503460015f3373ffffffffffffffffffffffffffffffffffffffff1673ffffffffffffffffffffffffffffffffffffffff1681526020019081526020015f205f828254610315919061108e565b925050819055503373ffffffffffffffffffffffffffffffffffffffff167f5fce7d71029faa3a32c7b9069ad203670d50f76a67a4a0bdb83e30accfbe3c618334844260405161036894939291906110c1565b60405180910390a25050565b60605f60055f805490501061038a576005610390565b5f805490505b90505f8167ffffffffffffffff8111156103ad576103ac61089e565b5b6040519080825280602002602001820160405280156103e657816020015b6103d361074a565b8152602001906001900390816103cb5790505b5090505f5b828110156105d6575f818154811061040657610405611112565b5b905f5260205f2090600502016040518060a00160405290815f82015f9054906101000a900473ffffffffffffffffffffffffffffffffffffffff1673ffffffffffffffffffffffffffffffffffffffff1673ffffffffffffffffffffffffffffffffffffffff16815260200160018201805461048190610dc5565b80601f01602080910402602001604051908101604052809291908181526020018280546104ad90610dc5565b80156104f85780601f106104cf576101008083540402835291602001916104f8565b820191905f5260205f20905b8154815290600101906020018083116104db57829003601f168201915b505050505081526020016002820154815260200160038201805461051b90610dc5565b80601f016020809104026020016040519081016040528092919081815260200182805461054790610dc5565b80156105925780601f1061056957610100808354040283529160200191610592565b820191905f5260205f20905b81548152906001019060200180831161057557829003601f168201915b505050505081526020016004820154815250508282815181106105b8576105b7611112565b5b602002602001018190525080806105ce9061113f565b9150506103eb565b50809250505090565b5f81815481106105ed575f80fd5b905f5260205f2090600502015f91509050805f015f9054906101000a900473ffffffffffffffffffffffffffffffffffffffff169080600101805461063190610dc5565b80601f016020809104026020016040519081016040528092919081815260200182805461065d90610dc5565b80156106a85780601f1061067f576101008083540402835291602001916106a8565b820191905f5260205f20905b81548152906001019060200180831161068b57829003601f168201915b5050505050908060020154908060030180546106c390610dc5565b80601f01602080910402602001604051908101604052809291908181526020018280546106ef90610dc5565b801561073a5780601f106107115761010080835404028352916020019161073a565b820191905f5260205f20905b81548152906001019060200180831161071d57829003601f168201915b5050505050908060040154905085565b6040518060a001604052805f73ffffffffffffffffffffffffffffffffffffffff168152602001606081526020015f8152602001606081526020015f81525090565b5f8115159050919050565b6107a08161078c565b82525050565b5f6020820190506107b95f830184610797565b92915050565b5f604051905090565b5f80fd5b5f80fd5b5f73ffffffffffffffffffffffffffffffffffffffff82169050919050565b5f6107f9826107d0565b9050919050565b610809816107ef565b8114610813575f80fd5b50565b5f8135905061082481610800565b92915050565b5f6020828403121561083f5761083e6107c8565b5b5f61084c84828501610816565b91505092915050565b5f819050919050565b61086781610855565b82525050565b5f6020820190506108805f83018461085e565b92915050565b5f80fd5b5f80fd5b5f601f19601f8301169050919050565b7f4e487b71000000000000000000000000000000000000000000000000000000005f52604160045260245ffd5b6108d48261088e565b810181811067ffffffffffffffff821117156108f3576108f261089e565b5b80604052505050565b5f6109056107bf565b905061091182826108cb565b919050565b5f67ffffffffffffffff8211156109305761092f61089e565b5b6109398261088e565b9050602081019050919050565b828183375f83830152505050565b5f61096661096184610916565b6108fc565b9050828152602081018484840111156109825761098161088a565b5b61098d848285610946565b509392505050565b5f82601f8301126109a9576109a8610886565b5b81356109b9848260208601610954565b91505092915050565b5f80604083850312156109d8576109d76107c8565b5b5f83013567ffffffffffffffff8111156109f5576109f46107cc565b5b610a0185828601610995565b925050602083013567ffffffffffffffff811115610a2257610a216107cc565b5b610a2e85828601610995565b9150509250929050565b5f81519050919050565b5f82825260208201905092915050565b5f819050602082019050919050565b610a6a816107ef565b82525050565b5f81519050919050565b5f82825260208201905092915050565b5f5b83811015610aa7578082015181840152602081019050610a8c565b5f8484015250505050565b5f610abc82610a70565b610ac68185610a7a565b9350610ad6818560208601610a8a565b610adf8161088e565b840191505092915050565b610af381610855565b82525050565b5f60a083015f830151610b0e5f860182610a61565b5060208301518482036020860152610b268282610ab2565b9150506040830151610b3b6040860182610aea565b5060608301518482036060860152610b538282610ab2565b9150506080830151610b686080860182610aea565b508091505092915050565b5f610b7e8383610af9565b905092915050565b5f602082019050919050565b5f610b9c82610a38565b610ba68185610a42565b935083602082028501610bb885610a52565b805f5b85811015610bf35784840389528151610bd48582610b73565b9450610bdf83610b86565b925060208a01995050600181019050610bbb565b50829750879550505050505092915050565b5f6020820190508181035f830152610c1d8184610b92565b905092915050565b610c2e81610855565b8114610c38575f80fd5b50565b5f81359050610c4981610c25565b92915050565b5f60208284031215610c6457610c636107c8565b5b5f610c7184828501610c3b565b91505092915050565b610c83816107ef565b82525050565b5f82825260208201905092915050565b5f610ca382610a70565b610cad8185610c89565b9350610cbd818560208601610a8a565b610cc68161088e565b840191505092915050565b5f60a082019050610ce45f830188610c7a565b8181036020830152610cf68187610c99565b9050610d05604083018661085e565b8181036060830152610d178185610c99565b9050610d26608083018461085e565b9695505050505050565b7f446f6e6174696f6e206d7573742062652067726561746572207468616e2030005f82015250565b5f610d64601f83610c89565b9150610d6f82610d30565b602082019050919050565b5f6020820190508181035f830152610d9181610d58565b9050919050565b7f4e487b71000000000000000000000000000000000000000000000000000000005f52602260045260245ffd5b5f6002820490506001821680610ddc57607f821691505b602082108103610def57610dee610d98565b5b50919050565b5f819050815f5260205f209050919050565b5f6020601f8301049050919050565b5f82821b905092915050565b5f60088302610e517fffffffffffffffffffffffffffffffffffffffffffffffffffffffffffffffff82610e16565b610e5b8683610e16565b95508019841693508086168417925050509392505050565b5f819050919050565b5f610e96610e91610e8c84610855565b610e73565b610855565b9050919050565b5f819050919050565b610eaf83610e7c565b610ec3610ebb82610e9d565b848454610e22565b825550505050565b5f90565b610ed7610ecb565b610ee2818484610ea6565b505050565b5b81811015610f0557610efa5f82610ecf565b600181019050610ee8565b5050565b601f821115610f4a57610f1b81610df5565b610f2484610e07565b81016020851015610f33578190505b610f47610f3f85610e07565b830182610ee7565b50505b505050565b5f82821c905092915050565b5f610f6a5f1984600802610f4f565b1980831691505092915050565b5f610f828383610f5b565b9150826002028217905092915050565b610f9b82610a70565b67ffffffffffffffff811115610fb457610fb361089e565b5b610fbe8254610dc5565b610fc9828285610f09565b5f60209050601f831160018114610ffa575f8415610fe8578287015190505b610ff28582610f77565b865550611059565b601f19841661100886610df5565b5f5b8281101561102f5784890151825560018201915060208501945060208101905061100a565b8683101561104c5784890151611048601f891682610f5b565b8355505b6001600288020188555050505b505050505050565b7f4e487b71000000000000000000000000000000000000000000000000000000005f52601160045260245ffd5b5f61109882610855565b91506110a383610855565b92508282019050808211156110bb576110ba611061565b5b92915050565b5f6080820190508181035f8301526110d98187610c99565b90506110e8602083018661085e565b81810360408301526110fa8185610c99565b9050611109606083018461085e565b95945050505050565b7f4e487b71000000000000000000000000000000000000000000000000000000005f52603260045260245ffd5b5f61114982610855565b91507fffffffffffffffffffffffffffffffffffffffffffffffffffffffffffffffff820361117b5761117a611061565b5b60018201905091905056fea2646970667358221220dbf8d90c366bde02f40624dcba18a6c051d6bbad5ab5959f9ba29aa43989b31164736f6c63430008150033",
  "immutableReferences": {},
  "source": "// SPDX-License-Identifier: MIT\r\npragma solidity ^0.8.0;\r\n\r\ncontract CharityDonation {\r\n    // Struct for each donation\r\n    struct Donation {\r\n        address donor;\r\n        string donorName;\r\n        uint256 amount;\r\n        string charity;\r\n        uint256 timestamp;\r\n    }\r\n\r\n    // Array to store donations\r\n    Donation[] public donations;\r\n\r\n    // Mapping to store top donors\r\n    mapping(address => uint256) public donorAmounts;\r\n\r\n    // Event to log each donation\r\n    event DonationMade(\r\n        address indexed donor,\r\n        string donorName,\r\n        uint256 amount,\r\n        string charity,\r\n        uint256 timestamp\r\n    );\r\n\r\n    // Function to make a donation\r\n    function makeDonation(string memory donorName, string memory charity) public payable {\r\n        require(msg.value > 0, \"Donation must be greater than 0\");\r\n\r\n        // Log the donation details\r\n        donations.push(Donation(msg.sender, donorName, msg.value, charity, block.timestamp));\r\n        donorAmounts[msg.sender] += msg.value;\r\n\r\n        emit DonationMade(msg.sender, donorName, msg.value, charity, block.timestamp);\r\n    }\r\n\r\n    // Function to get top donors\r\n    function getTopDonors() public view returns (Donation[] memory) {\r\n        uint256 topCount = donations.length < 5 ? donations.length : 5;\r\n        Donation[] memory topDonors = new Donation[](topCount);\r\n        for (uint256 i = 0; i < topCount; i++) {\r\n            topDonors[i] = donations[i];\r\n        }\r\n        return topDonors;\r\n    }\r\n\r\n    // Function to simulate mining, requires a minimum amount or top donor status\r\n    function simulateMining() public view returns (bool) {\r\n        return donorAmounts[msg.sender] >= 1 ether;\r\n    }\r\n}\r\n",
  "sourcePath": "D:\\sem5\\Blockchain-based-Charity-Donation-Platform\\truffle\\contracts\\charity.sol",
  "compiler": {
    "name": "solc",
    "version": "0.8.21+commit.d9974bed.Emscripten.clang"
  },
  "schemaVersion": "3.4.16",
  "updatedAt": "2024-11-07T08:34:07.896Z",
  "devdoc": {
    "kind": "dev",
    "methods": {},
    "version": 1
  },
  "userdoc": {
    "kind": "user",
    "methods": {},
    "version": 1
  }
}